{
  "abi": [
    {
      "inputs": [
        {
          "internalType": "uint256",
          "name": "_payoutbonus1",
          "type": "uint256"
        },
        {
          "internalType": "uint256",
          "name": "_payoutbonus2",
          "type": "uint256"
        },
        {
          "internalType": "uint256",
          "name": "_payoutbonus3",
          "type": "uint256"
        },
        {
          "internalType": "uint256",
          "name": "_bonusThreshold1",
          "type": "uint256"
        },
        {
          "internalType": "uint256",
          "name": "_bonusThreshold2",
          "type": "uint256"
        },
        {
          "internalType": "uint256",
          "name": "_bonusThreshold3",
          "type": "uint256"
        }
      ],
      "stateMutability": "nonpayable",
      "type": "constructor"
    },
    {
      "inputs": [
        {
          "internalType": "address",
          "name": "caller",
          "type": "address"
        },
        {
          "internalType": "uint256",
          "name": "projectId",
          "type": "uint256"
        },
        {
          "internalType": "uint256",
          "name": "value",
          "type": "uint256"
        }
      ],
      "name": "INVALID_PAYMENT_EVENT",
      "type": "error"
    },
    {
      "inputs": [
        {
          "internalType": "address",
          "name": "caller",
          "type": "address"
        },
        {
          "internalType": "uint256",
          "name": "projectId",
          "type": "uint256"
        },
        {
          "internalType": "uint256",
          "name": "value",
          "type": "uint256"
        }
      ],
      "name": "INVALID_REDEMPTION_EVENT",
      "type": "error"
    },
    {
      "inputs": [
        {
          "internalType": "address",
          "name": "payer",
          "type": "address"
        }
      ],
      "name": "PAYER_NOT_ON_ALLOWLIST",
      "type": "error"
    },
    {
      "inputs": [],
      "name": "SafetyNumber",
      "outputs": [
        {
          "internalType": "uint256",
          "name": "",
          "type": "uint256"
        }
      ],
      "stateMutability": "view",
      "type": "function"
    },
    {
      "inputs": [
        {
          "components": [
            {
              "internalType": "address",
              "name": "payer",
              "type": "address"
            },
            {
              "internalType": "uint256",
              "name": "projectId",
              "type": "uint256"
            },
            {
              "internalType": "uint256",
              "name": "currentFundingCycleConfiguration",
              "type": "uint256"
            },
            {
              "components": [
                {
                  "internalType": "address",
                  "name": "token",
                  "type": "address"
                },
                {
                  "internalType": "uint256",
                  "name": "value",
                  "type": "uint256"
                },
                {
                  "internalType": "uint256",
                  "name": "decimals",
                  "type": "uint256"
                },
                {
                  "internalType": "uint256",
                  "name": "currency",
                  "type": "uint256"
                }
              ],
              "internalType": "struct JBTokenAmount",
              "name": "amount",
              "type": "tuple"
            },
            {
              "components": [
                {
                  "internalType": "address",
                  "name": "token",
                  "type": "address"
                },
                {
                  "internalType": "uint256",
                  "name": "value",
                  "type": "uint256"
                },
                {
                  "internalType": "uint256",
                  "name": "decimals",
                  "type": "uint256"
                },
                {
                  "internalType": "uint256",
                  "name": "currency",
                  "type": "uint256"
                }
              ],
              "internalType": "struct JBTokenAmount",
              "name": "forwardedAmount",
              "type": "tuple"
            },
            {
              "internalType": "uint256",
              "name": "projectTokenCount",
              "type": "uint256"
            },
            {
              "internalType": "address",
              "name": "beneficiary",
              "type": "address"
            },
            {
              "internalType": "bool",
              "name": "preferClaimedTokens",
              "type": "bool"
            },
            {
              "internalType": "string",
              "name": "memo",
              "type": "string"
            },
            {
              "internalType": "bytes",
              "name": "metadata",
              "type": "bytes"
            }
          ],
          "internalType": "struct JBDidPayData",
          "name": "_data",
          "type": "tuple"
        }
      ],
      "name": "didPay",
      "outputs": [],
      "stateMutability": "payable",
      "type": "function"
    },
    {
      "inputs": [
        {
          "components": [
            {
              "internalType": "address",
              "name": "holder",
              "type": "address"
            },
            {
              "internalType": "uint256",
              "name": "projectId",
              "type": "uint256"
            },
            {
              "internalType": "uint256",
              "name": "currentFundingCycleConfiguration",
              "type": "uint256"
            },
            {
              "internalType": "uint256",
              "name": "projectTokenCount",
              "type": "uint256"
            },
            {
              "components": [
                {
                  "internalType": "address",
                  "name": "token",
                  "type": "address"
                },
                {
                  "internalType": "uint256",
                  "name": "value",
                  "type": "uint256"
                },
                {
                  "internalType": "uint256",
                  "name": "decimals",
                  "type": "uint256"
                },
                {
                  "internalType": "uint256",
                  "name": "currency",
                  "type": "uint256"
                }
              ],
              "internalType": "struct JBTokenAmount",
              "name": "reclaimedAmount",
              "type": "tuple"
            },
            {
              "components": [
                {
                  "internalType": "address",
                  "name": "token",
                  "type": "address"
                },
                {
                  "internalType": "uint256",
                  "name": "value",
                  "type": "uint256"
                },
                {
                  "internalType": "uint256",
                  "name": "decimals",
                  "type": "uint256"
                },
                {
                  "internalType": "uint256",
                  "name": "currency",
                  "type": "uint256"
                }
              ],
              "internalType": "struct JBTokenAmount",
              "name": "forwardedAmount",
              "type": "tuple"
            },
            {
              "internalType": "address payable",
              "name": "beneficiary",
              "type": "address"
            },
            {
              "internalType": "string",
              "name": "memo",
              "type": "string"
            },
            {
              "internalType": "bytes",
              "name": "metadata",
              "type": "bytes"
            }
          ],
          "internalType": "struct JBDidRedeemData",
          "name": "_data",
          "type": "tuple"
        }
      ],
      "name": "didRedeem",
      "outputs": [],
      "stateMutability": "payable",
      "type": "function"
    },
    {
      "inputs": [],
      "name": "directory",
      "outputs": [
        {
          "internalType": "contract IJBDirectory",
          "name": "",
          "type": "address"
        }
      ],
      "stateMutability": "view",
      "type": "function"
    },
    {
      "inputs": [
        {
          "internalType": "uint256",
          "name": "_projectId",
          "type": "uint256"
        },
        {
          "internalType": "contract IJBDirectory",
          "name": "_directory",
          "type": "address"
        },
        {
          "components": [
            {
              "internalType": "address[]",
              "name": "allowList",
              "type": "address[]"
            }
          ],
          "internalType": "struct DeployMyDelegateData",
          "name": "_deployMyDelegateData",
          "type": "tuple"
        }
      ],
      "name": "initialize",
      "outputs": [],
      "stateMutability": "nonpayable",
      "type": "function"
    },
    {
      "inputs": [
        {
          "components": [
            {
              "internalType": "contract IJBPaymentTerminal",
              "name": "terminal",
              "type": "address"
            },
            {
              "internalType": "address",
              "name": "payer",
              "type": "address"
            },
            {
              "components": [
                {
                  "internalType": "address",
                  "name": "token",
                  "type": "address"
                },
                {
                  "internalType": "uint256",
                  "name": "value",
                  "type": "uint256"
                },
                {
                  "internalType": "uint256",
                  "name": "decimals",
                  "type": "uint256"
                },
                {
                  "internalType": "uint256",
                  "name": "currency",
                  "type": "uint256"
                }
              ],
              "internalType": "struct JBTokenAmount",
              "name": "amount",
              "type": "tuple"
            },
            {
              "internalType": "uint256",
              "name": "projectId",
              "type": "uint256"
            },
            {
              "internalType": "uint256",
              "name": "currentFundingCycleConfiguration",
              "type": "uint256"
            },
            {
              "internalType": "address",
              "name": "beneficiary",
              "type": "address"
            },
            {
              "internalType": "uint256",
              "name": "weight",
              "type": "uint256"
            },
            {
              "internalType": "uint256",
              "name": "reservedRate",
              "type": "uint256"
            },
            {
              "internalType": "string",
              "name": "memo",
              "type": "string"
            },
            {
              "internalType": "bytes",
              "name": "metadata",
              "type": "bytes"
            }
          ],
          "internalType": "struct JBPayParamsData",
          "name": "_data",
          "type": "tuple"
        }
      ],
      "name": "payParams",
      "outputs": [
        {
          "internalType": "uint256",
          "name": "weight",
          "type": "uint256"
        },
        {
          "internalType": "string",
          "name": "memo",
          "type": "string"
        },
        {
          "components": [
            {
              "internalType": "contract IJBPayDelegate",
              "name": "delegate",
              "type": "address"
            },
            {
              "internalType": "uint256",
              "name": "amount",
              "type": "uint256"
            }
          ],
          "internalType": "struct JBPayDelegateAllocation[]",
          "name": "delegateAllocations",
          "type": "tuple[]"
        }
      ],
      "stateMutability": "nonpayable",
      "type": "function"
    },
    {
      "inputs": [
        {
          "internalType": "address",
          "name": "",
          "type": "address"
        }
      ],
      "name": "paymentFromAddressIsAllowed",
      "outputs": [
        {
          "internalType": "bool",
          "name": "",
          "type": "bool"
        }
      ],
      "stateMutability": "view",
      "type": "function"
    },
    {
      "inputs": [],
      "name": "projectId",
      "outputs": [
        {
          "internalType": "uint256",
          "name": "",
          "type": "uint256"
        }
      ],
      "stateMutability": "view",
      "type": "function"
    },
    {
      "inputs": [
        {
          "components": [
            {
              "internalType": "contract IJBPaymentTerminal",
              "name": "terminal",
              "type": "address"
            },
            {
              "internalType": "address",
              "name": "holder",
              "type": "address"
            },
            {
              "internalType": "uint256",
              "name": "projectId",
              "type": "uint256"
            },
            {
              "internalType": "uint256",
              "name": "currentFundingCycleConfiguration",
              "type": "uint256"
            },
            {
              "internalType": "uint256",
              "name": "tokenCount",
              "type": "uint256"
            },
            {
              "internalType": "uint256",
              "name": "totalSupply",
              "type": "uint256"
            },
            {
              "internalType": "uint256",
              "name": "overflow",
              "type": "uint256"
            },
            {
              "components": [
                {
                  "internalType": "address",
                  "name": "token",
                  "type": "address"
                },
                {
                  "internalType": "uint256",
                  "name": "value",
                  "type": "uint256"
                },
                {
                  "internalType": "uint256",
                  "name": "decimals",
                  "type": "uint256"
                },
                {
                  "internalType": "uint256",
                  "name": "currency",
                  "type": "uint256"
                }
              ],
              "internalType": "struct JBTokenAmount",
              "name": "reclaimAmount",
              "type": "tuple"
            },
            {
              "internalType": "bool",
              "name": "useTotalOverflow",
              "type": "bool"
            },
            {
              "internalType": "uint256",
              "name": "redemptionRate",
              "type": "uint256"
            },
            {
              "internalType": "string",
              "name": "memo",
              "type": "string"
            },
            {
              "internalType": "bytes",
              "name": "metadata",
              "type": "bytes"
            }
          ],
          "internalType": "struct JBRedeemParamsData",
          "name": "_data",
          "type": "tuple"
        }
      ],
      "name": "redeemParams",
      "outputs": [
        {
          "internalType": "uint256",
          "name": "reclaimAmount",
          "type": "uint256"
        },
        {
          "internalType": "string",
          "name": "memo",
          "type": "string"
        },
        {
          "components": [
            {
              "internalType": "contract IJBRedemptionDelegate",
              "name": "delegate",
              "type": "address"
            },
            {
              "internalType": "uint256",
              "name": "amount",
              "type": "uint256"
            }
          ],
          "internalType": "struct JBRedemptionDelegateAllocation[]",
          "name": "delegateAllocations",
          "type": "tuple[]"
        }
      ],
      "stateMutability": "view",
      "type": "function"
    },
    {
      "inputs": [
        {
          "internalType": "bytes4",
          "name": "_interfaceId",
          "type": "bytes4"
        }
      ],
      "name": "supportsInterface",
      "outputs": [
        {
          "internalType": "bool",
          "name": "",
          "type": "bool"
        }
      ],
      "stateMutability": "view",
      "type": "function"
    }
  ],
  "bytecode": {
    "object": "0x608060405234801561001057600080fd5b50604051610c82380380610c8283398101604081905261002f9161003b565b50610085945050505050565b60008060008060008060c0878903121561005457600080fd5b865195506020870151945060408701519350606087015192506080870151915060a087015190509295509295509295565b610bee806100946000396000f3fe6080604052600436106100915760003560e01c8063c41c2f2411610059578063c41c2f2414610153578063cbcd29bd1461018b578063d46cf171146101a1578063da9ee8b7146101c1578063fd8f145b146101d457600080fd5b806301ffc9a7146100965780632b13c58f146100cb5780633144e102146100e05780633fafa12714610100578063a51cfd1814610124575b600080fd5b3480156100a257600080fd5b506100b66100b1366004610793565b610204565b60405190151581526020015b60405180910390f35b6100de6100d93660046107dd565b610256565b005b3480156100ec57600080fd5b506100de6100fb36600461089f565b610321565b34801561010c57600080fd5b5061011660005481565b6040519081526020016100c2565b34801561013057600080fd5b5061014461013f3660046107dd565b6103b8565b6040516100c2939291906109e4565b34801561015f57600080fd5b50600154610173906001600160a01b031681565b6040516001600160a01b0390911681526020016100c2565b34801561019757600080fd5b5061011660085481565b3480156101ad57600080fd5b506101446101bc366004610a56565b610536565b6100de6101cf366004610a92565b61066c565b3480156101e057600080fd5b506100b66101ef366004610ace565b60096020526000908152604090205460ff1681565b60006001600160e01b031982166371700c6960e01b148061023557506001600160e01b0319821663da9ee8b760e01b145b8061025057506001600160e01b03198216632b13c58f60e01b145b92915050565b341515806102d85750600154600054604051636e49181f60e01b815260048101919091523360248201526001600160a01b0390911690636e49181f90604401602060405180830381865afa1580156102b2573d6000803e3d6000fd5b505050506040513d601f19601f820116820180604052508101906102d69190610aeb565b155b806102e95750600054816020013514155b1561031e5760405163dbd1cb8760e01b8152336004820152602082013560248201523460448201526064015b60405180910390fd5b50565b6000541561032e57600080fd5b6000838155600180546001600160a01b0319166001600160a01b038516179055815151905b818110156103b1576001600960008560000151848151811061037757610377610b0d565b6020908102919091018101516001600160a01b03168252810191909152604001600020805460ff1916911515919091179055600101610353565b5050505050565b6004546101008201359060609081906103d19084610b23565b600854101561045c5760405162461bcd60e51b815260206004820152604b60248201527f596f752061726520756e61626c6520746f2072656465656d20617320796f752060448201527f6d61792065666665637469766c792068617665206f766572206120253130302060648201526a72656465656d207261746560a81b608482015260a401610315565b61046a6101a0850185610b45565b8080601f016020809104026020016040519081016040528093929190818152602001838380828437600092019190915250929450600192506104aa915050565b6040519080825280602002602001820160405280156104ef57816020015b60408051808201909152600080825260208201528152602001906001900390816104c85790505b5090506040518060400160405280306001600160a01b0316815260200160008152508160008151811061052457610524610b0d565b60200260200101819052509193909250565b6000606080600060649050600554841061054f57506002545b600654841061055d57506003545b600754841061056b57506004545b610576606482610b23565b61058590610120870135610b93565b9350610595610160860186610b45565b8080601f016020809104026020016040519081016040528093929190818152602001838380828437600092019190915250929550600192506105d5915050565b60405190808252806020026020018201604052801561061a57816020015b60408051808201909152600080825260208201528152602001906001900390816105f35790505b5091506040518060400160405280306001600160a01b0316815260200160008152508260008151811061064f5761064f610b0d565b602090810291909101015250610120909301356008559092909190565b341515806106ee5750600154600054604051636e49181f60e01b815260048101919091523360248201526001600160a01b0390911690636e49181f90604401602060405180830381865afa1580156106c8573d6000803e3d6000fd5b505050506040513d601f19601f820116820180604052508101906106ec9190610aeb565b155b806106ff5750600054816020013514155b1561072f5760405163992405f760e01b815233600482015260208201356024820152346044820152606401610315565b600960006107406020840184610ace565b6001600160a01b0316815260208101919091526040016000205460ff1661031e5761076e6020820182610ace565b60405163a105efc760e01b81526001600160a01b039091166004820152602401610315565b6000602082840312156107a557600080fd5b81356001600160e01b0319811681146107bd57600080fd5b9392505050565b60006101e082840312156107d757600080fd5b50919050565b6000602082840312156107ef57600080fd5b813567ffffffffffffffff81111561080657600080fd5b610812848285016107c4565b949350505050565b6001600160a01b038116811461031e57600080fd5b634e487b7160e01b600052604160045260246000fd5b6040516020810167ffffffffffffffff811182821017156108685761086861082f565b60405290565b604051601f8201601f1916810167ffffffffffffffff811182821017156108975761089761082f565b604052919050565b6000806000606084860312156108b457600080fd5b833592506020808501356108c78161081a565b9250604085013567ffffffffffffffff808211156108e457600080fd5b81870191508282890312156108f857600080fd5b610900610845565b82358281111561090f57600080fd5b80840193505088601f84011261092457600080fd5b8235828111156109365761093661082f565b8060051b925061094785840161086e565b818152928401850192858101908b85111561096157600080fd5b948601945b8486101561098b578535925061097b8361081a565b8282529486019490860190610966565b8352509699959850965093945050505050565b6000815180845260005b818110156109c4576020818501810151868301820152016109a8565b506000602082860101526020601f19601f83011685010191505092915050565b838152600060206060818401526109fe606084018661099e565b83810360408581019190915285518083528387019284019060005b81811015610a4757845180516001600160a01b03168452860151868401529385019391830191600101610a19565b50909998505050505050505050565b600060208284031215610a6857600080fd5b813567ffffffffffffffff811115610a7f57600080fd5b82016101a081850312156107bd57600080fd5b600060208284031215610aa457600080fd5b813567ffffffffffffffff811115610abb57600080fd5b820161020081850312156107bd57600080fd5b600060208284031215610ae057600080fd5b81356107bd8161081a565b600060208284031215610afd57600080fd5b815180151581146107bd57600080fd5b634e487b7160e01b600052603260045260246000fd5b600082610b4057634e487b7160e01b600052601260045260246000fd5b500490565b6000808335601e19843603018112610b5c57600080fd5b83018035915067ffffffffffffffff821115610b7757600080fd5b602001915036819003821315610b8c57600080fd5b9250929050565b808202811582820484141761025057634e487b7160e01b600052601160045260246000fdfea264697066735822122072823fd53e93a4be55fd5f438fc337454180804881c8052567e715e4c334b2ec64736f6c63430008140033",
    "linkReferences": {}
  },
  "methodIdentifiers": {
    "SafetyNumber()": "cbcd29bd",
    "didPay((address,uint256,uint256,(address,uint256,uint256,uint256),(address,uint256,uint256,uint256),uint256,address,bool,string,bytes))": "da9ee8b7",
    "didRedeem((address,uint256,uint256,uint256,(address,uint256,uint256,uint256),(address,uint256,uint256,uint256),address,string,bytes))": "2b13c58f",
    "directory()": "c41c2f24",
    "initialize(uint256,address,(address[]))": "3144e102",
    "payParams((address,address,(address,uint256,uint256,uint256),uint256,uint256,address,uint256,uint256,string,bytes))": "d46cf171",
    "paymentFromAddressIsAllowed(address)": "fd8f145b",
    "projectId()": "3fafa127",
    "redeemParams((address,address,uint256,uint256,uint256,uint256,uint256,(address,uint256,uint256,uint256),bool,uint256,string,bytes))": "a51cfd18",
    "supportsInterface(bytes4)": "01ffc9a7"
  },
  "id": 61
}