{
  "abi": [
    {
      "inputs": [],
      "stateMutability": "nonpayable",
      "type": "constructor"
    },
    {
      "inputs": [
        {
          "internalType": "address",
          "name": "caller",
          "type": "address"
        },
        {
          "internalType": "uint256",
          "name": "projectId",
          "type": "uint256"
        },
        {
          "internalType": "uint256",
          "name": "value",
          "type": "uint256"
        }
      ],
      "name": "INVALID_PAYMENT_EVENT",
      "type": "error"
    },
    {
      "inputs": [
        {
          "internalType": "address",
          "name": "caller",
          "type": "address"
        },
        {
          "internalType": "uint256",
          "name": "projectId",
          "type": "uint256"
        },
        {
          "internalType": "uint256",
          "name": "value",
          "type": "uint256"
        }
      ],
      "name": "INVALID_REDEMPTION_EVENT",
      "type": "error"
    },
    {
      "inputs": [
        {
          "internalType": "address",
          "name": "payer",
          "type": "address"
        }
      ],
      "name": "PAYER_NOT_ON_ALLOWLIST",
      "type": "error"
    },
    {
      "inputs": [
        {
          "components": [
            {
              "internalType": "address",
              "name": "payer",
              "type": "address"
            },
            {
              "internalType": "uint256",
              "name": "projectId",
              "type": "uint256"
            },
            {
              "internalType": "uint256",
              "name": "currentFundingCycleConfiguration",
              "type": "uint256"
            },
            {
              "components": [
                {
                  "internalType": "address",
                  "name": "token",
                  "type": "address"
                },
                {
                  "internalType": "uint256",
                  "name": "value",
                  "type": "uint256"
                },
                {
                  "internalType": "uint256",
                  "name": "decimals",
                  "type": "uint256"
                },
                {
                  "internalType": "uint256",
                  "name": "currency",
                  "type": "uint256"
                }
              ],
              "internalType": "struct JBTokenAmount",
              "name": "amount",
              "type": "tuple"
            },
            {
              "components": [
                {
                  "internalType": "address",
                  "name": "token",
                  "type": "address"
                },
                {
                  "internalType": "uint256",
                  "name": "value",
                  "type": "uint256"
                },
                {
                  "internalType": "uint256",
                  "name": "decimals",
                  "type": "uint256"
                },
                {
                  "internalType": "uint256",
                  "name": "currency",
                  "type": "uint256"
                }
              ],
              "internalType": "struct JBTokenAmount",
              "name": "forwardedAmount",
              "type": "tuple"
            },
            {
              "internalType": "uint256",
              "name": "projectTokenCount",
              "type": "uint256"
            },
            {
              "internalType": "address",
              "name": "beneficiary",
              "type": "address"
            },
            {
              "internalType": "bool",
              "name": "preferClaimedTokens",
              "type": "bool"
            },
            {
              "internalType": "string",
              "name": "memo",
              "type": "string"
            },
            {
              "internalType": "bytes",
              "name": "metadata",
              "type": "bytes"
            }
          ],
          "internalType": "struct JBDidPayData",
          "name": "_data",
          "type": "tuple"
        }
      ],
      "name": "didPay",
      "outputs": [],
      "stateMutability": "payable",
      "type": "function"
    },
    {
      "inputs": [
        {
          "components": [
            {
              "internalType": "address",
              "name": "holder",
              "type": "address"
            },
            {
              "internalType": "uint256",
              "name": "projectId",
              "type": "uint256"
            },
            {
              "internalType": "uint256",
              "name": "currentFundingCycleConfiguration",
              "type": "uint256"
            },
            {
              "internalType": "uint256",
              "name": "projectTokenCount",
              "type": "uint256"
            },
            {
              "components": [
                {
                  "internalType": "address",
                  "name": "token",
                  "type": "address"
                },
                {
                  "internalType": "uint256",
                  "name": "value",
                  "type": "uint256"
                },
                {
                  "internalType": "uint256",
                  "name": "decimals",
                  "type": "uint256"
                },
                {
                  "internalType": "uint256",
                  "name": "currency",
                  "type": "uint256"
                }
              ],
              "internalType": "struct JBTokenAmount",
              "name": "reclaimedAmount",
              "type": "tuple"
            },
            {
              "components": [
                {
                  "internalType": "address",
                  "name": "token",
                  "type": "address"
                },
                {
                  "internalType": "uint256",
                  "name": "value",
                  "type": "uint256"
                },
                {
                  "internalType": "uint256",
                  "name": "decimals",
                  "type": "uint256"
                },
                {
                  "internalType": "uint256",
                  "name": "currency",
                  "type": "uint256"
                }
              ],
              "internalType": "struct JBTokenAmount",
              "name": "forwardedAmount",
              "type": "tuple"
            },
            {
              "internalType": "address payable",
              "name": "beneficiary",
              "type": "address"
            },
            {
              "internalType": "string",
              "name": "memo",
              "type": "string"
            },
            {
              "internalType": "bytes",
              "name": "metadata",
              "type": "bytes"
            }
          ],
          "internalType": "struct JBDidRedeemData",
          "name": "_data",
          "type": "tuple"
        }
      ],
      "name": "didRedeem",
      "outputs": [],
      "stateMutability": "payable",
      "type": "function"
    },
    {
      "inputs": [],
      "name": "directory",
      "outputs": [
        {
          "internalType": "contract IJBDirectory",
          "name": "",
          "type": "address"
        }
      ],
      "stateMutability": "view",
      "type": "function"
    },
    {
      "inputs": [
        {
          "internalType": "uint256",
          "name": "_projectId",
          "type": "uint256"
        },
        {
          "internalType": "contract IJBDirectory",
          "name": "_directory",
          "type": "address"
        },
        {
          "components": [
            {
              "internalType": "address[]",
              "name": "allowList",
              "type": "address[]"
            }
          ],
          "internalType": "struct DeployMyDelegateData",
          "name": "_deployMyDelegateData",
          "type": "tuple"
        }
      ],
      "name": "initialize",
      "outputs": [],
      "stateMutability": "nonpayable",
      "type": "function"
    },
    {
      "inputs": [
        {
          "components": [
            {
              "internalType": "contract IJBPaymentTerminal",
              "name": "terminal",
              "type": "address"
            },
            {
              "internalType": "address",
              "name": "payer",
              "type": "address"
            },
            {
              "components": [
                {
                  "internalType": "address",
                  "name": "token",
                  "type": "address"
                },
                {
                  "internalType": "uint256",
                  "name": "value",
                  "type": "uint256"
                },
                {
                  "internalType": "uint256",
                  "name": "decimals",
                  "type": "uint256"
                },
                {
                  "internalType": "uint256",
                  "name": "currency",
                  "type": "uint256"
                }
              ],
              "internalType": "struct JBTokenAmount",
              "name": "amount",
              "type": "tuple"
            },
            {
              "internalType": "uint256",
              "name": "projectId",
              "type": "uint256"
            },
            {
              "internalType": "uint256",
              "name": "currentFundingCycleConfiguration",
              "type": "uint256"
            },
            {
              "internalType": "address",
              "name": "beneficiary",
              "type": "address"
            },
            {
              "internalType": "uint256",
              "name": "weight",
              "type": "uint256"
            },
            {
              "internalType": "uint256",
              "name": "reservedRate",
              "type": "uint256"
            },
            {
              "internalType": "string",
              "name": "memo",
              "type": "string"
            },
            {
              "internalType": "bytes",
              "name": "metadata",
              "type": "bytes"
            }
          ],
          "internalType": "struct JBPayParamsData",
          "name": "_data",
          "type": "tuple"
        }
      ],
      "name": "payParams",
      "outputs": [
        {
          "internalType": "uint256",
          "name": "weight",
          "type": "uint256"
        },
        {
          "internalType": "string",
          "name": "memo",
          "type": "string"
        },
        {
          "components": [
            {
              "internalType": "contract IJBPayDelegate",
              "name": "delegate",
              "type": "address"
            },
            {
              "internalType": "uint256",
              "name": "amount",
              "type": "uint256"
            }
          ],
          "internalType": "struct JBPayDelegateAllocation[]",
          "name": "delegateAllocations",
          "type": "tuple[]"
        }
      ],
      "stateMutability": "view",
      "type": "function"
    },
    {
      "inputs": [
        {
          "internalType": "address",
          "name": "",
          "type": "address"
        }
      ],
      "name": "paymentFromAddressIsAllowed",
      "outputs": [
        {
          "internalType": "bool",
          "name": "",
          "type": "bool"
        }
      ],
      "stateMutability": "view",
      "type": "function"
    },
    {
      "inputs": [],
      "name": "payoutbonus1",
      "outputs": [
        {
          "internalType": "uint256",
          "name": "",
          "type": "uint256"
        }
      ],
      "stateMutability": "view",
      "type": "function"
    },
    {
      "inputs": [],
      "name": "payoutbonus2",
      "outputs": [
        {
          "internalType": "uint256",
          "name": "",
          "type": "uint256"
        }
      ],
      "stateMutability": "view",
      "type": "function"
    },
    {
      "inputs": [],
      "name": "payoutbonus3",
      "outputs": [
        {
          "internalType": "uint256",
          "name": "",
          "type": "uint256"
        }
      ],
      "stateMutability": "view",
      "type": "function"
    },
    {
      "inputs": [],
      "name": "projectId",
      "outputs": [
        {
          "internalType": "uint256",
          "name": "",
          "type": "uint256"
        }
      ],
      "stateMutability": "view",
      "type": "function"
    },
    {
      "inputs": [
        {
          "components": [
            {
              "internalType": "contract IJBPaymentTerminal",
              "name": "terminal",
              "type": "address"
            },
            {
              "internalType": "address",
              "name": "holder",
              "type": "address"
            },
            {
              "internalType": "uint256",
              "name": "projectId",
              "type": "uint256"
            },
            {
              "internalType": "uint256",
              "name": "currentFundingCycleConfiguration",
              "type": "uint256"
            },
            {
              "internalType": "uint256",
              "name": "tokenCount",
              "type": "uint256"
            },
            {
              "internalType": "uint256",
              "name": "totalSupply",
              "type": "uint256"
            },
            {
              "internalType": "uint256",
              "name": "overflow",
              "type": "uint256"
            },
            {
              "components": [
                {
                  "internalType": "address",
                  "name": "token",
                  "type": "address"
                },
                {
                  "internalType": "uint256",
                  "name": "value",
                  "type": "uint256"
                },
                {
                  "internalType": "uint256",
                  "name": "decimals",
                  "type": "uint256"
                },
                {
                  "internalType": "uint256",
                  "name": "currency",
                  "type": "uint256"
                }
              ],
              "internalType": "struct JBTokenAmount",
              "name": "reclaimAmount",
              "type": "tuple"
            },
            {
              "internalType": "bool",
              "name": "useTotalOverflow",
              "type": "bool"
            },
            {
              "internalType": "uint256",
              "name": "redemptionRate",
              "type": "uint256"
            },
            {
              "internalType": "string",
              "name": "memo",
              "type": "string"
            },
            {
              "internalType": "bytes",
              "name": "metadata",
              "type": "bytes"
            }
          ],
          "internalType": "struct JBRedeemParamsData",
          "name": "_data",
          "type": "tuple"
        }
      ],
      "name": "redeemParams",
      "outputs": [
        {
          "internalType": "uint256",
          "name": "reclaimAmount",
          "type": "uint256"
        },
        {
          "internalType": "string",
          "name": "memo",
          "type": "string"
        },
        {
          "components": [
            {
              "internalType": "contract IJBRedemptionDelegate",
              "name": "delegate",
              "type": "address"
            },
            {
              "internalType": "uint256",
              "name": "amount",
              "type": "uint256"
            }
          ],
          "internalType": "struct JBRedemptionDelegateAllocation[]",
          "name": "delegateAllocations",
          "type": "tuple[]"
        }
      ],
      "stateMutability": "view",
      "type": "function"
    },
    {
      "inputs": [
        {
          "internalType": "bytes4",
          "name": "_interfaceId",
          "type": "bytes4"
        }
      ],
      "name": "supportsInterface",
      "outputs": [
        {
          "internalType": "bool",
          "name": "",
          "type": "bool"
        }
      ],
      "stateMutability": "view",
      "type": "function"
    }
  ],
  "bytecode": {
    "object": "0x6080604052600b600255600c600355600d60045534801561001f57600080fd5b50610b5c8061002f6000396000f3fe6080604052600436106100a75760003560e01c8063aada54c011610064578063aada54c01461017f578063c41c2f2414610195578063d46cf171146101cd578063da9ee8b7146101ed578063f7c7b14414610200578063fd8f145b1461021657600080fd5b806301ffc9a7146100ac57806318e9ec77146100e15780632b13c58f146101055780633144e1021461011a5780633fafa1271461013a578063a51cfd1814610150575b600080fd5b3480156100b857600080fd5b506100cc6100c7366004610701565b610246565b60405190151581526020015b60405180910390f35b3480156100ed57600080fd5b506100f760025481565b6040519081526020016100d8565b61011861011336600461074b565b610298565b005b34801561012657600080fd5b5061011861013536600461080d565b610363565b34801561014657600080fd5b506100f760005481565b34801561015c57600080fd5b5061017061016b36600461074b565b6103fa565b6040516100d893929190610952565b34801561018b57600080fd5b506100f760035481565b3480156101a157600080fd5b506001546101b5906001600160a01b031681565b6040516001600160a01b0390911681526020016100d8565b3480156101d957600080fd5b506101706101e83660046109c4565b6104dd565b6101186101fb366004610a00565b6105da565b34801561020c57600080fd5b506100f760045481565b34801561022257600080fd5b506100cc610231366004610a3c565b60056020526000908152604090205460ff1681565b60006001600160e01b031982166371700c6960e01b148061027757506001600160e01b0319821663da9ee8b760e01b145b8061029257506001600160e01b03198216632b13c58f60e01b145b92915050565b3415158061031a5750600154600054604051636e49181f60e01b815260048101919091523360248201526001600160a01b0390911690636e49181f90604401602060405180830381865afa1580156102f4573d6000803e3d6000fd5b505050506040513d601f19601f820116820180604052508101906103189190610a59565b155b8061032b5750600054816020013514155b156103605760405163dbd1cb8760e01b8152336004820152602082013560248201523460448201526064015b60405180910390fd5b50565b6000541561037057600080fd5b6000838155600180546001600160a01b0319166001600160a01b038516179055815151905b818110156103f357600160056000856000015184815181106103b9576103b9610a7b565b6020908102919091018101516001600160a01b03168252810191909152604001600020805460ff1916911515919091179055600101610395565b5050505050565b6101008101356060806104116101a0850185610a91565b8080601f01602080910402602001604051908101604052809392919081815260200183838082843760009201919091525092945060019250610451915050565b60405190808252806020026020018201604052801561049657816020015b604080518082019091526000808252602082015281526020019060019003908161046f5790505b5090506040518060400160405280306001600160a01b031681526020016000815250816000815181106104cb576104cb610a7b565b60200260200101819052509193909250565b6000606080826104ee600a82610adf565b6104fd90610120870135610b01565b935061050d610160860186610a91565b8080601f0160208091040260200160405190810160405280939291908181526020018383808284376000920191909152509295506001925061054d915050565b60405190808252806020026020018201604052801561059257816020015b604080518082019091526000808252602082015281526020019060019003908161056b5790505b5091506040518060400160405280306001600160a01b031681526020016000815250826000815181106105c7576105c7610a7b565b6020026020010181905250509193909250565b3415158061065c5750600154600054604051636e49181f60e01b815260048101919091523360248201526001600160a01b0390911690636e49181f90604401602060405180830381865afa158015610636573d6000803e3d6000fd5b505050506040513d601f19601f8201168201806040525081019061065a9190610a59565b155b8061066d5750600054816020013514155b1561069d5760405163992405f760e01b815233600482015260208201356024820152346044820152606401610357565b600560006106ae6020840184610a3c565b6001600160a01b0316815260208101919091526040016000205460ff16610360576106dc6020820182610a3c565b60405163a105efc760e01b81526001600160a01b039091166004820152602401610357565b60006020828403121561071357600080fd5b81356001600160e01b03198116811461072b57600080fd5b9392505050565b60006101e0828403121561074557600080fd5b50919050565b60006020828403121561075d57600080fd5b813567ffffffffffffffff81111561077457600080fd5b61078084828501610732565b949350505050565b6001600160a01b038116811461036057600080fd5b634e487b7160e01b600052604160045260246000fd5b6040516020810167ffffffffffffffff811182821017156107d6576107d661079d565b60405290565b604051601f8201601f1916810167ffffffffffffffff811182821017156108055761080561079d565b604052919050565b60008060006060848603121561082257600080fd5b8335925060208085013561083581610788565b9250604085013567ffffffffffffffff8082111561085257600080fd5b818701915082828903121561086657600080fd5b61086e6107b3565b82358281111561087d57600080fd5b80840193505088601f84011261089257600080fd5b8235828111156108a4576108a461079d565b8060051b92506108b58584016107dc565b818152928401850192858101908b8511156108cf57600080fd5b948601945b848610156108f957853592506108e983610788565b82825294860194908601906108d4565b8352509699959850965093945050505050565b6000815180845260005b8181101561093257602081850181015186830182015201610916565b506000602082860101526020601f19601f83011685010191505092915050565b8381526000602060608184015261096c606084018661090c565b83810360408581019190915285518083528387019284019060005b818110156109b557845180516001600160a01b03168452860151868401529385019391830191600101610987565b50909998505050505050505050565b6000602082840312156109d657600080fd5b813567ffffffffffffffff8111156109ed57600080fd5b82016101a0818503121561072b57600080fd5b600060208284031215610a1257600080fd5b813567ffffffffffffffff811115610a2957600080fd5b8201610200818503121561072b57600080fd5b600060208284031215610a4e57600080fd5b813561072b81610788565b600060208284031215610a6b57600080fd5b8151801515811461072b57600080fd5b634e487b7160e01b600052603260045260246000fd5b6000808335601e19843603018112610aa857600080fd5b83018035915067ffffffffffffffff821115610ac357600080fd5b602001915036819003821315610ad857600080fd5b9250929050565b600082610afc57634e487b7160e01b600052601260045260246000fd5b500490565b808202811582820484141761029257634e487b7160e01b600052601160045260246000fdfea26469706673582212208a7ff910b809de18ca17a2ca0294c7e30f2cda443c09990525e1abb818589fcd64736f6c63430008140033",
    "linkReferences": {}
  },
  "methodIdentifiers": {
    "didPay((address,uint256,uint256,(address,uint256,uint256,uint256),(address,uint256,uint256,uint256),uint256,address,bool,string,bytes))": "da9ee8b7",
    "didRedeem((address,uint256,uint256,uint256,(address,uint256,uint256,uint256),(address,uint256,uint256,uint256),address,string,bytes))": "2b13c58f",
    "directory()": "c41c2f24",
    "initialize(uint256,address,(address[]))": "3144e102",
    "payParams((address,address,(address,uint256,uint256,uint256),uint256,uint256,address,uint256,uint256,string,bytes))": "d46cf171",
    "paymentFromAddressIsAllowed(address)": "fd8f145b",
    "payoutbonus1()": "18e9ec77",
    "payoutbonus2()": "aada54c0",
    "payoutbonus3()": "f7c7b144",
    "projectId()": "3fafa127",
    "redeemParams((address,address,uint256,uint256,uint256,uint256,uint256,(address,uint256,uint256,uint256),bool,uint256,string,bytes))": "a51cfd18",
    "supportsInterface(bytes4)": "01ffc9a7"
  },
  "id": 61
}